:020000040000FA
:100000000C9427010C9458210C9431210C944F012D
:100010000C944F010C944F010C944F010C949E22B0
:100020000C944F010C944F010C944F010C944F0110
:100030000C944F010C944F010C944F010C944F0100
:100040000C94E7200C944F010C94B5200C948F2055
:100050000C944F010C944F010C944F010C944F01E0
:100060000C947F210C944F01FFFFFFFF000000FF65
:10007000000000FF00FF80E619FFFFFF00FF4000C7
:10008000FF8000FFC400FFFF0000FF4000FF800072
:10009000FFC400FFFF4000FF8000FFC400FFFF001F
:1000A000FF000000002300260029000000000800D7
:1000B00002010000030407000000000000000056D9
:1000C000657273696F6E3A20001E1212121E040CC4
:1000D00004040E1E021E101E1E020E021E12121E0E
:1000E00002021E101E021E1E101E121E1E02020200
:1000F000021E121E121E1E121E021E0E11131519B2
:10010000110E040C040404040E0E11010204081F55
:100110001F02040201110E02060A121F02021F1022
:100120001E0101110E0608101E11110E1F010204FE
:100130000808080E11110E11110E0E11110F0102F7
:100140000C0C121E1212011C121C121C010E10109B
:10015000100E011C1212121C011E101C101E011E7A
:10016000101C1010010E1016120C0112121E121289
:10017000011010101010041E0202120C01121418AB
:10018000141201101010101E01111B151111001175
:1001900019151311000C1212120C011C121C101054
:1001A000010C12120C02011C121C1412010E100C74
:1001B000021C011F0404040400111111110E00118E
:1001C00011110A04001111151B1100110A040A1162
:1001D00000110A040404001E0204081E011E12126B
:1001E000121E040C04040E1E021E101E1E020E021D
:1001F0001E12121E02021E101E021E1E101E121EB3
:100200001E020202021E121E121E1E121E021E00DC
:10021000000000240027002A0001020408102040EA
:1002200080010204081020010204081020000000D0
:1002300000250028002B0004040404040404040224
:1002400002020202020303030303030072231124C8
:100250001FBECFEFD8E0DEBFCDBF11E0A0E0B1E020
:10026000E8E5FCE602C005900D92AC3EB107D9F777
:1002700025E0ACEEB1E001C01D92A73AB207E1F76C
:1002800011E0C7E2D1E004C02197FE010E941D36B3
:10029000C632D107C9F70E942F260C942A360C9437
:1002A00000006695262F30E0A82FB0E00E94AB3505
:1002B00024E630E040E050E00E945735822F089558
:1002C000E7E5F2E01192119282E0E737F807D1F703
:1002D0000895E0911F05E1111DC081E080931F0585
:1002E000E1E080911D05811103C081E080931D052F
:1002F00080912005382F337020911D05E63029F0BC
:1003000080F4E230A1F0E43081F49EE19217A0F491
:10031000291BF4CFED3010F0EC50FCCFE0931F051B
:10032000E0CFE93091F3EB3081F39FE1EFCF9CE137
:100330003111ECCF9DE1EACF20931D0564E60E94C8
:10034000E93590932005E33008F49150E25080E0C5
:10035000EB3020F4F0E0E45EFE4F8081280F33277D
:10036000331F290F311D96959695A901490F511DEF
:10037000CA0167E070E00E940936811101C087E080
:1003800080931E050895462F65E00E94E935592F98
:1003900090E080E065E070E0E82F851790F444235A
:1003A00021F0FB01E81BF90BE370F0E0EE0FFF1FFB
:1003B000E95AFD4F208131812F61318320830196DD
:1003C000EBCF08958B30D0F4E82FF0E0E251FE4FF0
:1003D00020915702309158020C941D36FF01FF0105
:1003E000F901F901F901F9010102F901030212020F
:1003F00014023372309358022093570208953172D9
:10040000F9CF3772F7CF39703093580220935702E3
:100410008091590290915A029F7790935A0280934B
:10042000590208953371E6CF3870E4CF4B3008F0AD
:100430000FC3E42FF0E0E15EFD4F0C941D369902EE
:1004400099022A022A022A022A02F2025403C00353
:100450002E049904662309F4DAC2209169023091CE
:100460006A02206E30936A0220936902893108F093
:10047000EFC2E82FF0E0E15CFD4F0C941D3658020E
:1004800027030005BB04630240037A046E02740272
:100490007F0289028F02580227030005BB04630212
:1004A00040037A046E0274027F0289028F025802AE
:1004B0008091670290916802806E936090936802C9
:1004C0008093670208958091630290916402806E28
:1004D0009160909364028093630208958091670213
:1004E000909168029C6FEACF8091650290916602BC
:1004F000806E91609093660280936502089580916A
:10050000690290916A029E6190936A0280936902E7
:1005100008958091690290916A02906FF5CF809161
:100520005F029091600297609093600280935F02F7
:100530000895893108F08CC2E82FF0E0EE55FD4FA8
:100540000C941D36BB02C102C702CE02D402DE02E9
:10055000E2030D04E502EB027A047402BB02C1025D
:10056000C702CE02D402DE02E2030D04E502EB0272
:100570007A047402BB028091690290916A029E67BC
:10058000C3CF80916302909164029863A2CF80915F
:10059000630290916402806897609BCF80916902AA
:1005A00090916A02806EB0CF809161029091620258
:1005B000986F909362028093610208958091610226
:1005C00090916202806C9760F4CF80916702909165
:1005D00068029C6773CF8091670290916802806C7B
:1005E00093606CCF662351F02091690230916A02CA
:1005F000206E376030936A0220936902893108F0D7
:1006000027C2E82FF0E0E95FFC4F0C941D36200371
:10061000270374042D03BB046E0434033A037A04E5
:10062000400347034D032003270374042D03BB0439
:100630006E0434033A037A04400347034D03200356
:100640008091670290916802806E976037CF8091A9
:10065000610290916202906EACCF809161029091A4
:100660006202806E9360A5CF8091610290916202D8
:100670009C619FCF8091670290916802986F1ECF16
:1006800080915F0290916002806E91604DCF809169
:10069000690290916A02906E37CF809165029091C5
:1006A0006602806E976026CF893108F0D1C1E82FAD
:1006B000F0E0E35AFC4F0C941D3676037D0387036C
:1006C00092039D03A303AE031A04E004B403BA0328
:1006D0006804ED047D03870392039D03A303AE0327
:1006E0001A04E004B403BA036804760380915F023D
:1006F00090916002806E976017CF80915B0290911D
:100700005C029E6090935C0280935B0208958091EE
:10071000570290915802806E916090935802809396
:10072000570208958091590290915A02806E936009
:1007300090935A02809359020895809159029091A2
:100740005A029C6FF5CF80915D0290915E02806E9F
:10075000916090935E0280935D02089580915D02A6
:1007600090915E029E60F5CF80915B0290915C0259
:10077000906FC8CF80915F02909160029863D4CE51
:10078000893108F065C1E82FF0E0E753FC4F0C9485
:100790001D36E203E803EE03F503FB03010407043F
:1007A0000D0414041A0421042704E203E803EE03F1
:1007B000F503FB03010407040D0414041A042104C7
:1007C0002704E20380915F02909160029C6FACCE9F
:1007D0008091590290915A029C63AACF809159024C
:1007E00090915A02806C9160A3CF80915B029091AE
:1007F0005C02906E87CF80916102909162029E6F41
:10080000D8CE80916302909164029C6F62CE8091F9
:10081000610290916202806ECCCE80915F029091D5
:100820006002806E936080CE80915B0290915C024A
:100830009E6168CF80915B0290915C02806E9160B6
:1008400061CF80915D0290915E02986F82CF80911E
:100850005D0290915E02806E97607BCF662349F0C7
:100860002091690230916A02206E30936A022093CF
:100870006902893108F0ECC0E82FF0E0EE5BFB4F35
:100880000C941D365B04610468040005BB046E040F
:1008900074047A04800486048D0493045B04610468
:1008A00068040005BB046E0474047A0480048604A2
:1008B0008D0493045B048091690290916A029C6F9D
:1008C00023CE80915F0290916002806C91602CCE6B
:1008D0008091610290916202906F6BCE8091630271
:1008E000909164029F60F5CD8091630290916402C3
:1008F000806EEFCD8091650290916602986FFACD7F
:100900008091670290916802906FD8CD80916502C6
:1009100090916602806E9360EDCD80916702909118
:1009200068029F60CBCD8091670290916802806ED3
:10093000C5CD893108F08CC0E82FF0E0EE55FB4FB3
:100940000C941D36BB04C104C704CD04D304D904E0
:10095000E004E604ED04F304FA040005BB04C1045A
:10096000C704CD04D304D904E004E604ED04F30481
:10097000FA040005BB048091630290916402906FB9
:10098000A8CD8091570290915802806EC6CE80917A
:10099000590290915A02906ECBCE8091590290915B
:1009A0005A029F60C5CE80915B0290915C029C6F61
:1009B000A9CE80915B0290915C02806E9360A2CE82
:1009C00080915D0290915E02906FC3CE80915D0236
:1009D00090915E02806C9760BCCE80915F02909196
:1009E0006002906FA1CD80915F029091600280685B
:1009F0009F609ACD80916102909162029C63D9CDF3
:100A00008091610290916202806E9160D2CD8931B5
:100A1000F8F4E82FF0E0E15FFA4F0C941D3658022D
:100A200068040005BB04630240037A046E0274028A
:100A30007F0289028F02580268040005BB0463022A
:100A400040037A046E0274027F0289028F02580208
:100A500008952091570230915802813011F08D3065
:100A600031F4366C3093580220935702089537675B
:100A7000F9CF813061F08D3051F080915702909123
:100A80005802966F90935802809357020895809170
:100A9000590290915A02906890935A028093590299
:100AA0000895813011F08D3059F480916102909158
:100AB0006202806C97609093620280936102089555
:100AC0008823E9F38C30D9F38831C9F3809161022E
:100AD00090916202806E9760EECFCF93C82F862FE1
:100AE000C7FF02C0C85EFCCFC83114F0C851FCCFAC
:100AF0004B3008F0AAC2E42FF0E0EF57FA4F0C9405
:100B00001D36850685068C058C058C058C05210710
:100B1000B707B2089609520A20915702309158023D
:100B2000B9017C6D709358026093570265E00E9492
:100B3000E9358C3008F089C2E82FF0E0EE55FA4F25
:100B40000C941D364307AE05C005CA05DC05010639
:100B5000F0050C06190649066B067E06206E3D6DF3
:100B6000309358022093570280915D0290915E026B
:100B7000806E916090935E0280935D0260E084C11C
:100B80008091590290915A02906F90935A028093EB
:100B90005902EACF80915B0290915C02806E9F6067
:100BA00090935C0280935B02433011F04530E1F694
:100BB00060E081E08C0F5EC080915D0290915E02EA
:100BC0002091590230915A024530A1F4306F309390
:100BD0005A0220935902906E90935E0280935D02B8
:100BE00080915F0290916002906F90936002809379
:100BF0005F02DECF206E3F6030935A02209359028D
:100C0000B7CF206E3D6D30935802209357028091EC
:100C10005D0290915E02DFCF206E3D6D30935802F1
:100C20002093570280915D0290915E02806E9160E8
:100C3000D3CF20915D0230915E0260915902709194
:100C40005A0281E08C0F4530C1F4706F70935A02E4
:100C500060935902206E316030935E0220935D02F2
:100C600020915F0230916002306F309360022093D8
:100C70005F0260E0CF910C941602606E7F6070930B
:100C80005A0260935902306E30935E0220935D02E7
:100C9000F0CF20915B0230915C0281E08C0F9DEFE0
:100CA000940F933038F4206E3F6F30935C022093A2
:100CB0005B02DFCF206E3F6030935C0220935B02CB
:100CC00020915D0230915E02306E30935E0220937F
:100CD0005D0242E0CECF8091590290915A02906F0E
:100CE00090935A028093590280915D0290915E0226
:100CF000906E90935E0280935D025ACF206E3D6DA0
:100D00003093580220935702EFCF20915702309131
:100D10005802B9017E6D709358026093570265E0E6
:100D20000E94E9358C3008F090C1E82FF0E0E556DC
:100D3000F94F0C941D364307A706B206BE06C4063B
:100D4000CE06E106E806F90604070E071A078091A9
:100D5000590290915A02806E916090935A0280934A
:100D6000590206C0206E3E6D309358022093570200
:100D700080915D0290915E029063FCCE8091590259
:100D800090915A029E6FE9CF80915B0290915C0234
:100D90009E6790935C0280935B02EACF8091590238
:100DA00090915A02806E916090935A0280935902FA
:100DB00080915B0290915C02806E90935C028093C4
:100DC0005B0280915D0290915E02806C976091CF92
:100DD0008091590290915A02806E916090935A02CC
:100DE0008093590280915D0290915E02806C9763BE
:100DF00080CF80915B0290915C02806E9E679093A1
:100E00005C0280935B02D4CE8091590290915A0289
:100E10009E6F90935A028093590206C0206E3E6DD9
:100E2000309358022093570280915B0290915C02AC
:100E3000806EE5CF8091590290915A02806E916048
:100E4000E8CF2091570230915802386D3093580204
:100E50002093570265E00E94E9358C3008F0F5C018
:100E6000E82FF0E0EA5CF84F0C941D364207460785
:100E700051075B07700776077D0783078E07940786
:100E8000A407B00746E061E08C2FF4CE80915B02AE
:100E900090915C02806C936090935C0280935B0203
:100EA00014C080915D0290915E02976090935E0203
:100EB00080935D020AC08091590290915A02806825
:100EC0009F6B90935A028093590280915F02909198
:100ED0006002906F9093600280935F0246E04ECE76
:100EE00080915B0290915C029C6FD6CF80915B02F7
:100EF00090915C02806C9F6FCFCF80915D0290914A
:100F00005E02906FD3CF80915B0290915C02806C07
:100F10009F6F90935C0280935B0210C080915B0294
:100F200090915C029C6FF5CF8091590290915A028A
:100F300080689F6B90935A028093590280915D0262
:100F400090915E02806606C080915D0290915E0283
:100F50008066976090935E0280935D0246E028CEA3
:100F600080915B0290915C02806C9360D2CF209163
:100F70005702309158023C6D30935802209357022B
:100F800065E00E94E9358C3008F05FC0E82FF0E0A2
:100F9000E453F84F0C941D36D807E107F007020818
:100FA0001408270836085108640877088F089F0836
:100FB00047E061E08C2F0E9416028C2FCF910C9499
:100FC000510547E060E08C2F0E9416028C2F0E9492
:100FD00051058091670290916802806C936031C0E6
:100FE00047E060E08C2F0E9416028C2F0E94510572
:100FF0008091630290916402806E9093640280936A
:10100000630223C047E060E08C2F0E9416028C2F01
:101010000E94510580916502909166029F6D9093A8
:1010200066028093650211C047E060E08C2F0E9449
:1010300016028C2F0E9451058091670290916802E0
:10104000986F9093680280936702CF91089547E06C
:1010500060E08C2F0E9416028C2F0E945105809117
:10106000670290916802806C9F6FEBCF47E060E071
:101070008C2F0E9416028C2F0E94510580916502D0
:1010800090916602906C90936602809365028091C5
:10109000690290916A029F6190936A02809369024B
:1010A000D4CFCF5F47E060E08C2F0E9416028C2FD8
:1010B0000E9451058091630290916402986F909311
:1010C000640280936302CBCFCF5F47E060E08C2F58
:1010D0000E9416028C2F0E9451058091630290910C
:1010E0006402986F9093640280936302A5CFCF5FF0
:1010F00047E060E08C2F0E9416028C2F0E94510561
:1011000080916302909164029B6F9093640280933C
:10111000630280916502909166029F6180CFCF5FEC
:1011200047E060E08C2F0E9416028C2F0E94510530
:101130008091630290916402806E986F5ECFCF5F62
:1011400047E060E08C2F0E9416028C2F0E94510510
:101150008091630290916402986F909364028093EF
:10116000630237CF65E00E94E9358C3008F06DCF1F
:10117000E82FF0E0E254F74F0C941D36CA08D3086C
:10118000E708FA0807091609260936094B095B0919
:101190007109850948E061E08C2F0E9416028C2FAE
:1011A000CF910C9439058091650290916602906808
:1011B0009093660280936502809167029091680225
:1011C000806E976090936802809367021DC0809143
:1011D0006502909166029068909366028093650222
:1011E0008091690290916A02986F90936A0280934D
:1011F00069020AC08091650290916602806E976BC9
:10120000909366028093650248E060E0C5CF8091CC
:1012100065029091660290689093660280936502E1
:101220008091670290916802986FCCCF809165029F
:101230009091660290689093660280936502809117
:10124000670290916802806E9F6FBCCF80916502AB
:1012500090916602906890936602809365028091F7
:10126000690290916A02806E9360BFCF80916302A1
:1012700090916402806E9160909364028093630207
:101280008091670290916802806E9F6F90936802D0
:101290008093670224C08091630290916402806E03
:1012A00091609093640280936302809167029091B1
:1012B0006802986FEBCF8091630290916402806E18
:1012C0009160909364028093630280916502909193
:1012D0006602806E97639093660280936502CF5F8B
:1012E00093CF8091630290916402806E916090939D
:1012F0006402809363028091690290916A02986F00
:1013000090936A0280936902EACF80916302909180
:101310006402806E91609093640280936302809176
:10132000670290916802806E9760B0CF209157025B
:1013300030915802A9015C6E5093580240935702B5
:1013400065E00E94E9358C3008F07FCEE82FF0E0B0
:10135000E455F64F0C941D36B809BA09CB09D509E6
:10136000EA09FF09F4090C0A1C0A260A3A0A450A86
:1013700049E089CD206E3D6E30935802209357028C
:1013800080915B0290915C02906F90935C028093DD
:101390005B0249E0F3CB8091590290915A02906F21
:1013A00090935A0280935902EBCF80915B02909107
:1013B0005C02806E936090935C0280935B028091EC
:1013C0005D0290915E02806E916090935E028093C8
:1013D0005D02DFCF8091590290915A02806E916F29
:1013E00090935A028093590280915D0290915E021F
:1013F000906F90935E0280935D0249E0D9CB206E9E
:101400003D6E30935802209357028091590290917B
:101410005A02806E9160E4CF206E3D6E3093580288
:101420002093570280915B0290915C02906F9093A1
:101430005C0280935B02D8CF8091590290915A024E
:10144000906F90935A0280935902ECCF80915B0287
:1014500090915C02806E936090935C0280935B023B
:1014600080915F0290916002906F909360028093F0
:101470005F02C3CF8091590290915A02806E916FA2
:1014800090935A0280935902B8CF206E3D6E3093EC
:101490005802209357028091590290915A02806E0F
:1014A0009160EECF65E00E94E9358C3008F0CDCD3B
:1014B000E82FF0E0E25AF54F0C941D36910A6A0AC3
:1014C0007E0A960AAA0AB90AC90AD80AED0A010BC5
:1014D000170B280B809163029091640294609093A3
:1014E0006402809363028091670290916802806E2B
:1014F0009360909368028093670213C080916302A7
:10150000909164029460909364028093630280914E
:10151000650290916602806E91609093660280935E
:1015200065028C2F0E9429054AE028CB8091630236
:10153000909164029460909364028093630280911E
:10154000690290916A02806E976090936A0280931C
:101550006902E7CF80916302909164029460909356
:1015600064028093630280916502909166029E6797
:10157000D4CF80916302909164029460909364024E
:10158000809363028091670290916802806E9F6FE2
:10159000B0CF809163029091640294609093640252
:1015A000809363028091690290916A02986FCDCF17
:1015B0008091630290916402806E936090936402C4
:1015C000809363028091670290916802806E9F6FA2
:1015D000909368028093670228C080916302909183
:1015E0006402806E936090936402809363028091A2
:1015F0006502909166029E679093660280936502F1
:1016000014C08091630290916402806E9360909305
:101610006402809363028091690290916A02806EF5
:10162000976090936A0280936902CF5F7ACF80912E
:10163000630290916402806E936090936402809341
:1016400063028091650290916602806E9160D4CFB2
:101650008091630290916402806E93609093640223
:10166000809363028091670290916802806E93601C
:10167000AFCF0895835B9F4FFC018081089508954B
:1016800008950895AF92BF92CF92DF92EF92FF92AA
:101690000F931F93CF93DF936C017B018B01040F9A
:1016A000151FEB015E01AE18BF08C017D10759F036
:1016B0006991D601ED91FC910190F081E02DC60178
:1016C0000995892B79F7C501DF91CF911F910F9172
:1016D000FF90EF90DF90CF90BF90AF900895FC0106
:1016E000538D448D252F30E0842F90E0821B930B87
:1016F000541710F0CF96089501970895FC01918D2D
:10170000828D981761F0A28DAE0FBF2FB11D5D962F
:101710008C91928D9F5F9F73928F90E008958FEFD1
:101720009FEF0895FC01918D828D981731F0828D85
:10173000E80FF11D858D90E008958FEF9FEF0895DC
:10174000FC01918D228D892F90E0805C9F4F821B40
:1017500091098F739927089589EE92E00E94A00B5A
:1017600021E0892B09F420E0822F089580E090E0A9
:10177000892B29F00E94AC0B81110C940000089574
:10178000FC01A48DA80FB92FB11DA35ABF4F2C91F6
:10179000848D90E001968F739927848FA689B789ED
:1017A0002C93A089B1898C91837080648C93938DE4
:1017B000848D981306C00288F389E02D80818F7D87
:1017C00080830895EF92FF920F931F93CF93DF933F
:1017D000EC0181E0888F9B8D8C8D98131AC0E8896D
:1017E000F989808185FF15C09FB7F894EE89FF893C
:1017F0006083E889F98980818370806480839FBFDA
:1018000081E090E0DF91CF911F910F91FF90EF90D9
:101810000895F62E0B8D10E00F5F1F4F0F731127E9
:10182000E02E8C8D8E110CC00FB607FCFACFE88924
:10183000F989808185FFF5CFCE010E94C00BF1CFE1
:10184000EB8DEC0FFD2FF11DE35AFF4FF0829FB798
:10185000F8940B8FEA89FB8980818062CFCFCF9388
:10186000DF93EC01888D8823B9F0AA89BB89E889C8
:10187000F9898C9185FD03C0808186FD0DC00FB66E
:1018800007FCF7CF8C9185FFF2CF808185FFEDCFEC
:10189000CE010E94C00BE9CFDF91CF910895833034
:1018A00081F028F4813099F08230A9F008958730D2
:1018B000A9F08830C9F08430B1F4809180008F7D28
:1018C00003C0809180008F7780938000089584B555
:1018D0008F7784BD089584B58F7DFBCF8091B00054
:1018E0008F778093B00008958091B0008F7DF9CFFD
:1018F000CF93DF93282F30E0F901E555FF4F849116
:10190000F901E75EFD4FD491F901E95CFD4FC49107
:10191000CC23A1F081110E944F0CEC2FF0E0EE0FD0
:10192000FF1FEF55FF4FA591B491EC91ED2381E09E
:1019300090E009F480E0DF91CF91089580E090E09D
:10194000FACF9091AF04882341F0892F0E94780C40
:1019500021E0892B41F020E006C0892F0E94780CFD
:1019600021E00197C1F7822F08951F93CF93DF9352
:10197000282F30E0F901E555FF4F8491F901E75E2A
:10198000FD4FD491F901E95CFD4FC491CC23A9F03E
:10199000162F81110E944F0CEC2FF0E0EE0FFF1F6D
:1019A000E35DFD4FA591B4918FB7F894EC911111BF
:1019B00008C0D095DE23DC938FBFDF91CF911F91BC
:1019C0000895DE2BF8CFCF93DF9390E0FC01E75E24
:1019D000FD4F2491895C9D4FFC0184918823C9F0BF
:1019E00090E0880F991FFC01E15FFD4FA591B49134
:1019F000FC01E35DFD4FC591D49161110DC09FB70E
:101A0000F8948C91209582238C93888128232883B5
:101A10009FBFDF91CF910895623051F49FB7F89442
:101A20003C91822F809583238C93E8812E2BEFCFDE
:101A30008FB7F894EC912E2B2C938FBFEACF8E307A
:101A400008F08E508770806480937C0080917A00CB
:101A5000806480937A0080917A0086FDFCCF80912B
:101A600078009091790008953FB7F89480913B02F7
:101A700090913C02A0913D02B0913E0226B5A89BF8
:101A800005C02F3F19F00196A11DB11D3FBFBA2F10
:101A9000A92F982F8827BC01CD01620F711D811DD0
:101AA000911D42E0660F771F881F991F4A95D1F755
:101AB00008958F929F92AF92BF92CF92DF92EF9252
:101AC000FF924B015C010E94340D6B017C010E946E
:101AD000340D6C197D098E099F09683E734081059C
:101AE0009105A8F321E0821A9108A108B10888EEB7
:101AF000C80E83E0D81EE11CF11C81149104A104DE
:101B0000B10429F7FF90EF90DF90CF90BF90AF9096
:101B10009F908F9008952FB7F8946091370270913D
:101B200038028091390290913A022FBF08950F93A5
:101B30001F930E948B0D6093F1027093F2028093C9
:101B4000F3029093F40289EE92E00E94920B97FFC9
:101B50001DC00E948B0D0091F1021091F2022091A4
:101B6000F3023091F402601B710B820B930B009116
:101B7000ED021091EE022091EF023091F002601719
:101B8000710782079307F8F28FEF9FEF1F910F9174
:101B900008950895DC01ED91FC9111976E177F0770
:101BA00080F4FB01EE0FFF1F6E0F7F1F1696ED9165
:101BB000FC91E60FF71F406840833068318320684E
:101BC00022830895FC01808928E030E090E8882392
:101BD00039F06EBD00000DB407FEFDCF8EB508953F
:101BE000A685B7858385462F4923A9F04C91842B80
:101BF0008C93A485B5858C914285842B8C93A48588
:101C0000B5854C918285809584238C93969521503F
:101C1000310931F708954C9180958423E9CFCF9213
:101C2000DF92EF92FF920F931F93CF938C01FC01F1
:101C3000E680F780C080D180F1E0CF1AD10878F13A
:101C4000F701C08191818281C91710F4C81720F073
:101C5000C92F891708F4C82F6C2FC8010E94E20D04
:101C6000CF77F70160816C1BC8010E94E20DF7017C
:101C700062816C1BC8010E94E20DF70161816C1B3F
:101C8000C8010E94E20D60E8C8010E94E20D60E810
:101C9000C8010E94E20DF3E0EF0EF11CCDCFF80178
:101CA000E480F580F1E0EF1AF10828F060E0C80167
:101CB0000E94E20DF7CFCF911F910F91FF90EF900F
:101CC000DF90CF90089520911302260F3327331F02
:101CD00021323105ECF42091BF02FC0190E080E05C
:101CE000243069F082E00895A09113022191AC01A3
:101CF0004D505E4FA40FB52FB11D2C930196861742
:101D000098F380911302680F6093130280E00895A6
:101D100081E008951092BF0281E08093BE0210928C
:101D2000990261E082E10E94B50C61E083E10E94CA
:101D3000B50CE9EBF0E080818E7F808380818D7F20
:101D4000808388E48093B80085E48093BC00089584
:101D5000CF93DF9391E09093F2018823B9F0C09183
:101D6000B800D091BA008091BC008A7B8093BC00FF
:101D700060E082E10E94B50C60E083E10E94B50C56
:101D80000E948A0ED093BA00C093B800DF91CF9121
:101D900008958F929F92AF92BF92CF92DF92EF926F
:101DA000FF920F931F93CF93DF93D091E802D1322C
:101DB00008F0D7C0182FC091E7020E94340D6B01C4
:101DC0007C018091BF0281116BC082E08093BF02D1
:101DD0001093BE028FEF8093BD021092BC02D0938D
:101DE000BB02A7ECB2E0EBE9F2E080E0D81391C0CF
:101DF00010929A0280919A02CC0FC82BC0939A023B
:101E000080919902813009F088C0109299020E9455
:101E1000340D6B017C0180919A028093BB0080910C
:101E2000C1029091C202A091C302B091C402892B59
:101E30008A2B8B2BA1F00E94340D0091C1021091CE
:101E4000C2022091C3023091C4026C197D098E092F
:101E50009F09061717072807390708F442C0809121
:101E6000BC0083FDD8CF85EC8093BC000E94340D6C
:101E70006B017C018091BF02823009F450C08091D7
:101E8000BD028F3F09F46FC08091BD02803209F41A
:101E90006CC08091BD02803309F469C084E026C023
:101EA0008091C1029091C202A091C302B091C4027C
:101EB000892B8A2B8B2B09F484CF0E94340D8090C0
:101EC000C1029090C202A090C302B090C4026C19EB
:101ED0007D098E099F0986169706A806B90608F09F
:101EE00070CF8091C0020E94A80E85E01092C602B9
:101EF0001092E8021092C502DF91CF911F910F91CD
:101F0000FF90EF90DF90CF90BF90AF909F908F9019
:101F100008959D9191938F5F69CF85EEA5CF8091B4
:101F2000C1029091C202A091C302B091C402892B58
:101F30008A2B8B2B09F49ECF0E94340D0091C10295
:101F40001091C2022091C3023091C4026C197D0924
:101F50008E099F09061717072807390708F08ACF47
:101F6000C0CF81E0C3CF80E0C1CF82E0BFCF83E0AC
:101F7000BDCFE091780280917702E81730F4F0E06D
:101F8000E758FD4F808190E008958FEF9FEF08950F
:101F900090917802809177022FEF3FEF981748F4E5
:101FA000E92FF0E0E758FD4F208130E09F5F9093EC
:101FB0007802C90108958091770290917802891B77
:101FC000990B0895CF92DF92EF92FF920F931F9398
:101FD000CF93DF937C01CB018A012091C50222239C
:101FE00089F0EB016B01C40ED51ECC15DD0569F03F
:101FF0006991D701ED91FC910190F081E02DC7012D
:102000000995F3CF642F0E94630EC801DF91CF9131
:102010001F910F91FF90EF90DF90CF900895CF9395
:10202000DF931F92CDB7DEB769832091C5022223CB
:10203000F9F02091E802203258F021E030E0FC0174
:102040003383228390E080E00F90DF91CF91089559
:102050008091C602E82FF0E0E953FD4F998190830B
:102060008F5F8093C6028093E80281E090E0ECCF1E
:1020700061E0CE0101960E94630EF7CF1F93CF93CC
:10208000DF93CBE1D5E08F8991E09093C5028093F7
:10209000E7021092C6021092E80260E086E893E040
:1020A0000E940F108A8D1AE0612F0E94E9358295F7
:1020B000807F682F690F86E893E00E940F10888167
:1020C000612F0E94E9358295807F682F690F86E82D
:1020D00093E00E940F108981612F0E94E93582955B
:1020E000807F682F690F86E893E00E940F108B8134
:1020F000612F0E94E9358295807F682F690F86E8FD
:1021000093E00E940F108A81612F0E94E935829529
:10211000807F682F690F86E893E00E940F108C8102
:10212000612F0E94E9358295807F682F690F86E8CC
:1021300093E00E940F108D81612F0E94E9358295F6
:10214000807F682F690F86E893E00E940F1081E07E
:10215000DF91CF911F910C94C90E90E080E008951B
:10216000FC01908125E09F5F9C3308F090E02150B6
:10217000D1F790830895EF92FF920F931F93CF931F
:10218000DF93EC013D8180E090E0DC013323B9F086
:10219000432F50E0CA0103969595879595958795AD
:1021A000EDE6F1E04E9FB0014F9F700D5E9F700D08
:1021B0001124860F971F092E000CAA0BBB0BEC8174
:1021C000E250EB3098F5F0E0E851FF4E0C941D36EC
:1021D00013110E110B11081105110211FF10FC1043
:1021E000F910F610F3104E96A11DB11D4F96A11DCA
:1021F000B11D4E96A11DB11D4F96A11DB11D4F964B
:10220000A11DB11D4E96A11DB11D4F96A11DB11D61
:102210004E96A11DB11D4F96A11DB11D3430C8F5BC
:102220004C96A11DB11D4F96A11DB11D2A817C01A7
:102230008D01E20EF11C011D111DA8019701A8E1FD
:10224000B0E00E94763529817B018C01E20EF11C01
:10225000011D111DA8019701ACE3B0E00E94763585
:10226000AB01BC01888190E0B0E0A0E0805A9540CD
:10227000A109B1098C019D01040F151F261F371FED
:10228000C901B801DF91CF911F910F91FF90EF909D
:1022900008954D96A11DB11DC6CFE0919D05F09109
:1022A0009E0521816CE3808190E0269F800D911D29
:1022B0001124E0919F05F091A0052181408150E01B
:1022C000269F400D511D1124841795077CF47091B1
:1022D0001C0520911B0530E0769F200D311D112437
:1022E00082179307BCF424173507B4F04817590731
:1022F0008CF460911C0520911B0530E07CE3679F06
:10230000200D311D11248217930734F081E024172A
:1023100035070CF080E0089581E0089581E0809316
:102320000401809152028F5F80935202809151028A
:10233000882381F090916104933061F08150809303
:102340005102811107C09151923020F01092610426
:102350001092600408950F931F93CF93DF93D0E002
:10236000C0E08C010F5A1F4F20E030E0A901BE01F0
:10237000F801808191810E94CA0D2196C337D10551
:1023800099F7DF91CF911F910F9108951F93CF93EC
:10239000DF93162FC42F4535F8F4842F880F880F4C
:1023A000642F681B6150812F0E945101D82F6C2F20
:1023B000660F6C0F812F0E945101D068806890E0F9
:1023C000B0E0A0E06627782F892F9A2F8D2B6068C8
:1023D000DF91CF911F9108954A3AE0F4DBEAD40FE0
:1023E0006D2F660F6D0F812F0E945101C82F8D2F09
:1023F000880F880F6D2F681B6150812F0E9451013B
:10240000282F20686C2F70E090E080E06068806882
:10241000722BDECFD6E5D40F8D2F880F880F6D2F4E
:10242000681B6150812F0E945101C82F6D2F660FCC
:102430006D0F812F0E945101282F20686C2F70E0B2
:1024400090E080E060687068822BC2CFDC01E62FEC
:102450006E3628F5FAE0862F6F2F0E94E935BC0111
:10246000AF5ABF4F8D919C9160FF0DC06F9F602D43
:102470001124671BE9E0E60F6E2F70E0E43660F48C
:102480006E5F7F4F06C06E2F70E06F5F7F4FEA3048
:1024900098F70E94CA0D0EC06D5F7F4FFACF60376C
:1024A000F9F070F46E36B9F0AF5ABF4F66E670E0DF
:1024B000EF3671F061E070E080E090E00C94590D2F
:1024C000613799F0AF5ABF4F62E770E0E23791F79A
:1024D0008D919C91DECFAF5ABF4F70E060E0F8CF96
:1024E000AF5ABF4F61E770E0F3CFAF5ABF4F6BE019
:1024F00070E0EECFCF93DF93EC010E94AB11CF5A87
:10250000DF4F88819981DF91CF910C940F0ECF938B
:10251000DF93EC010E94AB11FE01EF5AFF4F808167
:1025200091810E940F0EC75BDF4F81E08883DF91AE
:10253000CF91089581E0809304010E944D1188237A
:1025400039F085E08093610480E495E00C94871273
:10255000089580916104833059F0853049F083E01B
:10256000809361040E949A1280E495E00C94871293
:1025700080916004809361040895FC01E35BFF4F48
:102580002081261761F0DC01A75BBF4F2C9122232D
:1025900031F06083825B9F4F21E0FC01208308952E
:1025A000CF93DF93EC01E881F9810680F781E02D7C
:1025B00062E30995E881F9810088F189E02DCE0177
:1025C0000995E881F9810684F785E02DCE01DF9138
:1025D000CF910994FC014F3880E758078FEF6807C7
:1025E000710509F4C8C008F059C04F3C80E3580792
:1025F0008FEF6807710509F4BCC048F5473E88E1D4
:1026000058078FEF6807710509F4BFC080F4473F92
:1026100088E058078FEF6807710509F4B8C04F3E8E
:1026200050416F4F710509F4A0C080E008954F3DFF
:1026300080E258078FEF6807710509F4B2C0473D83
:1026400058426F4F710589F781E0828359C0473A3C
:1026500088E558078FEF6807710509F49AC078F488
:10266000473B88E458078FEF6807710509F493C06A
:102670004F3A50456F4F7105C1F683E030C04F3976
:1026800080E658078FEF6807710509F469C047397C
:1026900058466F4F710549F682E0D7CF4F3480EB33
:1026A00058078FEF6807710509F461C058F5473680
:1026B00088E958078FEF6807710509F462C090F444
:1026C000473788E858078FEF6807710509F45BC042
:1026D0004F3650496F4F710509F0A7CF81E08383D2
:1026E0008AE008954F3580EA58078FEF6807710533
:1026F000C9F14735584A6F4F710509F096CF1282DC
:102700008CE60895473288ED58078FEF680771050A
:1027100009F443C078F4473388EC58078FEF680713
:102720007105E9F14F32504D6F4F710509F07DCFC2
:1027300085E0D5CF473188EE58078FEF68077105E0
:10274000F1F04F3080EF58078FEF68077105A9F05F
:102750004F31504E6F4F710509F067CF87E00895F4
:102760008DE60895148285E6089582E0B8CF13823D
:10277000B7CF84E0B4CF86E0B2CF83E1B0CF83E0BF
:1027800064CF88E6089589E608958AE608958BE681
:10279000089584E0089585E0089587E6089586E029
:1027A000089586E60895CF93DF93EC0188819A819E
:1027B00091110CC00E94780C3B8121E0381719065A
:1027C00009F020E0822FDF91CF9108950E94780CCC
:1027D0002B8128171906A9F78981ECCFCF92DF92B8
:1027E000EF92FF921F93CF93DF93EC011A818881C0
:1027F000111127C00E94780C2B812817190651F05F
:1028000010E0812FDF91CF911F91FF90EF90DF902B
:10281000CF9008950E948B0DCC80DD80EE80FF80EC
:102820006C197D098E099F096D32714081059105F2
:1028300038F30E948B0D6C837D838E839F8311E020
:10284000E0CF0E94780C2B8128171906C9F68981E0
:102850000E94780C2B812817190691F60E948B0D87
:10286000CC80DD80EE80FF806C197D098E099F0988
:102870006D3271408105910518F20E948B0D6C83B9
:102880007D838E839F83BDCF4F925F926F927F92A5
:102890008F929F92AF92BF92CF92DF92EF92FF9270
:1028A0000F931F93CF93DF9310E001E0DD24DA94C0
:1028B00086E0C82E95EE992E25EC822EDAE08091E6
:1028C00032050093C5028093E7021092C60210926F
:1028D000E80260E086E893E00E940F1080E00E942A
:1028E000C90EC09132050E94340D2B013C0180912C
:1028F000BF02811162C00093BF020093BE02D0925A
:10290000BD021092BC02C092BB0200939A02809159
:102910009A02CC0FC82BC0939A0280919902813001
:1029200009F0FFC0109299020E94340D2B013C0166
:1029300080919A028093BB008091C1029091C20263
:10294000A091C302B091C402892B8A2B8B2BA1F0DA
:102950000E94340D2091C1023091C2024091C30205
:102960005091C4026419750986099709261737071B
:102970004807590708F442C08091BC0083FDD8CFB6
:102980008092BC000E94340D2B013C018091BF025B
:10299000813009F4C9C08091BC02C7E0873010F4CF
:1029A000C091BC02EBE9F2E0A9E7B2E080E08C174D
:1029B00051F191919D938F5FFACF8091C1029091D7
:1029C000C202A091C302B091C402892B8A2B8B2B27
:1029D00009F48DCF0E94340D2091C1023091C202C2
:1029E0004091C3025091C402641975098609970980
:1029F000261737074807590708F079CF8091C0029A
:102A00000E94A80EC0E010927802C0937702C730EF
:102A100009F0ACC086E893E00E94C80F982F929509
:102A200097708F709D9F800D11248093350586E8E7
:102A300093E00E94C80F982F92959F708F709D9F72
:102A4000800D112480931B0586E893E00E94C80F37
:102A5000982F929593708F709D9F800D1124809375
:102A60001C0586E893E00E94C80F982F92959F70EE
:102A70008F709D9F800D112480931E0586E893E042
:102A80000E94C80F982F92959F708F709D9F800D08
:102A9000112480931D0586E893E00E94C80F982FAB
:102AA00092959F708F709D9F800D112480931F05BC
:102AB00086E893E00E94C80F982F92959F708F70C0
:102AC0009D9F800D11248093200581E00E94C90EF6
:102AD000C73019F0183008F4F2CE183089F48BE0C2
:102AE0008093350580931B0580931C0581E08093BE
:102AF0001E0580931D0580931F058EED8093200594
:102B0000DF91CF911F910F91FF90EF90DF90CF90C9
:102B1000BF90AF909F908F907F906F905F904F90FD
:102B200008959092BC002ECF8091C1029091C20274
:102B3000A091C302B091C402892B8A2B8B2B09F47C
:102B400025CF0E94340D2091C1023091C2024091E4
:102B5000C3025091C40264197509860997092617A2
:102B600037074807590708F011CF48CFF12CE12C5F
:102B7000AC2EB12CEA14FB0444F486E893E00E94E6
:102B8000C80F8FEFE81AF80AF5CF1F5F9ECFCF93DB
:102B9000DF93CBE1D5E01A8E0E943E100E944414D0
:102BA0008A8D80935202DF91CF910895EF92FF9228
:102BB0000F931F93CF93DF93EC01FC010190002052
:102BC000E9F73197E81BF90BE230F10509F071C024
:102BD000A62FB0E0AA0FBB1FA95ABD4F90E080E01E
:102BE00016E065E070E0472F50E0FE010190002004
:102BF000E9F73197EC1BFD0B4E175F0708F04CC04F
:102C0000FE01E40FF51F00814F5F5F4F41705527B4
:102C1000E02E002E000CFF082D913C9111970053DF
:102C20000A30F0F400E3E01AF1086E9DF0016F9DA8
:102C3000F00D1124E80FF91FE352FE4FE491F0E08C
:102C4000062F649F000D112402C0EE0FFF1F0A958E
:102C5000E2F7E22BF32B1196FC93EE937F5FC3CF49
:102C6000E1E4EE1AF1081E9DF0011F9DF00D112404
:102C7000E80FF91FEF5BFE4FE491F0E0149F700145
:102C8000159FF00C112405E0E00EF11C02C0EE0FC0
:102C9000FF1FEA94E2F7DDCF019612968530910589
:102CA00009F0A0CFDF91CF911F910F91FF90EF908E
:102CB00008953197B9F7A62FB0E0AA0FBB1FA95A04
:102CC000BD4F30E020E015E006E0E8816E2F0E2ECB
:102CD000000C770B8D919D91E053AD01425051094D
:102CE000EA30B0F061547109069FF001079FF00DC2
:102CF0001124E20FF31FEF5BFE4FE4919E2BFA01CC
:102D0000918380832F5F3F4F25303105F1F6CACF85
:102D100060537109169FF001179FF00D1124E20F07
:102D2000F31FE352FE4FE9CF85ED8093BC00809105
:102D3000C1029091C202A091C302B091C402079651
:102D4000A11DB11D23E0B695A795979587952A9566
:102D5000D1F72091BC0024FD03C01092BF0208955A
:102D60004091C1025091C2026091C3027091C402AD
:102D7000452B462B472B69F30097A105B10541F080
:102D800025E32A95F1F700000197A109B109E1CFE8
:102D90008091C0020C94A80E0C9449350C944135D6
:102DA00090E080E00E94CE168A3C29F06AEC90E028
:102DB00080E00E94CC1681E090E00E94CE16873021
:102DC00029F067E081E090E00E94CC1682E090E07C
:102DD0000E94CE1660919305861721F082E090E064
:102DE0000E94CC1683E090E00E94CE16609194057C
:102DF000861721F083E090E00E94CC1684E090E0FA
:102E00000E94CE1660919505861721F084E090E02F
:102E10000E94CC1685E090E00E94CE166091960547
:102E2000861721F085E090E00E94CC1686E090E0C5
:102E30000E94CE1660919705861721F086E090E0FB
:102E40000E94CC1687E090E00E94CE166091980513
:102E5000861721F087E090E00E94CC1688E090E091
:102E60000E94CE1660919905262F062E000C330B7A
:102E70008217130621F088E090E00E94CC1689E0CA
:102E800090E00E94CE1660919B05861721F089E0A4
:102E900090E00E94CC168AE090E00E94CE166091ED
:102EA0009A05861721F08AE090E00E94CC168BE00C
:102EB00090E00E94CE1660919C05861721F08BE071
:102EC00090E00E94CC168CE090E00E94CE16E0913B
:102ED0009D05F0919E056081861721F08CE090E0C1
:102EE0000E94CC168DE090E00E94CE16E0919D05E8
:102EF000F0919E056181861721F08DE090E00E949F
:102F0000CC168EE090E00E94CE16E0919F05F091E5
:102F1000A0056081861721F08EE090E00E94CC161B
:102F20008FE090E00E94CE16E0919F05F091A00501
:102F30006181861721F08FE090E00E94CC1680E13D
:102F400090E00E94CE166091A105861721F080E1E5
:102F500090E00E94CC1681E190E00E94CE16609134
:102F6000A205861721F081E190E00C94CC1608951B
:102F7000CF9380919505811112C0C0919605C630FE
:102F800070F0CA50C5300CF4C5E0C09396050E949D
:102F9000D0166C2F80E495E0CF910C94BD12CF91A8
:102FA000089581E080930401E0916104E250E231F0
:102FB00008F0A2C0F0E0E152F84E0C941D361B1848
:102FC0007C187C187C1821182E18381842186E1896
:102FD0007518F11706180F181518FD1752186018F4
:102FE0004A1880911C058F5F883120F480931C055E
:102FF0000C94C71510921C05FBCF80919905843F56
:103000000CF47AC081508093990508958091200531
:10301000865F809320050E9469010C943E10809188
:103020001F05865F80931F05F6CF80911D05865F83
:1030300080931D05F0CF8091A105809351020C94DF
:10304000B8178091950591E08927809395058111A6
:1030500053C080918D0580939605089580919B05BE
:10306000811104C083E080939B0508958150FBCFBC
:1030700080919A05811104C084E180939A05089596
:103080008150FBCF8091A2058823B1F181508093BC
:10309000A20508958091A105882371F18150809344
:1030A000A105089580915102E0919D05F0919E0542
:1030B00081110EC085E08093510208951182FACFEC
:1030C000809151028823B1F3E0919F05F091A00512
:1030D00081818F5F883190F78183ECCF8091980553
:1030E00091E0892780939805089580919305811137
:1030F00004C08AE08093930508958150FBCFCF935D
:1031000080919505811112C0C0919605C43670F466
:10311000C65FC53608F0C4E6C09396050E94D01677
:103120006C2F80E495E0CF910C94BD12CF9108955F
:1031300081E080930401E0916104E250E23108F003
:10314000B3C0F0E0EA55F74E0C941D36E21854195E
:1031500054195419E818F51800191C1943194A197B
:10316000B818CD18D618DC18C4182C193A19241917
:1031700080911B058F5F8C3320F480931B050C948A
:10318000C71510921B05FBCF809199058D300CF06F
:103190008BC08F5F809399050895809120058F5F84
:1031A000809320050E9469010C943E1080911F05B8
:1031B0008F5F80931F05F6CF80911D058F5F8093F1
:1031C0001D05F0CF8091A105809351020C947F18CA
:1031D0008091950591E0892780939505811164C0C0
:1031E00080918D0580939605089580919B0583308D
:1031F00019F410929B0508958F5F80939B050895A5
:1032000080919A058431A1F410929A0580919A05D3
:10321000833108F449C0109284050E948B0D60939D
:10322000850570938605809387059093880508959A
:103230008F5F80939A05EACF8091A2058A30A0F52E
:103240008F5F8093A20508958091A105833660F574
:103250008F5F8093A105089580915102882331F0FA
:1032600080919D0590919E050E94B01085E080930D
:1032700051020895809151028823C1F380919F05E6
:103280009091A005F1CF8091980591E089278093D6
:1032900098050895809193058F5F8B3018F4809383
:1032A0009305089510929305089581E08093040199
:1032B00080916104853059F50E94A912809195058D
:1032C000882339F080916104823019F483E080937F
:1032D000610480916104843011F0863111F4109200
:1032E000610410925102809161049FEF980F923017
:1032F000A8F48091A10580935102809161048330EC
:1033000021F0853011F0809360040C94D0168F5F0B
:1033100066E10E94E93590936104D0CF833069F76C
:1033200080E495E00E948712E8CF0F931F93CF931C
:10333000DF93EC018B0181E080930401C730D1055C
:10334000B9F158F5C130D10509F43FC0809161044D
:103350008330B9F08530A9F0C536D10509F4C6C06F
:1033600008F04FC0C530D10509F490C088F5C330CE
:10337000D10509F4DCC008F070C0C230D10509F4F1
:10338000F7C0CE018D7F88369105A9F1CE01019756
:10339000039788F1269779F168C0C830D10559F0B4
:1033A000C930D10599F68091600480936104CECF35
:1033B0000E94A912CBCF83E0809361040E949A12ED
:1033C00080E495E00E948712C1CF0E945519BECFBC
:1033D000CA30D10509F466C0C436D10509F483C0EA
:1033E000C630D10571F6863008F059C086E080936A
:1033F000610480936004DF91CF911F910F910C9431
:10340000D016C936D10509F495C098F4C736D10550
:1034100009F476C008F46DC0811186C080911C0546
:103420008F5F883108F07DC080931C050E94C7150E
:10343000E2CFCB36D10509F49EC008F489C0CC3662
:10344000D10509F4A4C081E0CD36D10509F099CFAA
:10345000809361048093600408C090919505911158
:1034600004C0823089F40E947F1880916104863004
:1034700031F008F096C08150823008F097C08091FA
:10348000A10580935102B7CF82E0E2CF90919505DC
:103490009111EBCF8230C1F70E94B817E6CF0E949E
:1034A0005519A9CFF8018381833129F490919A05A8
:1034B000933109F484E180939A0580919A058331D0
:1034C00028F088E080936104809360041092840562
:1034D0000E948B0D60938505709386058093870508
:1034E00090938805C2CF0E94D016BFCFF801848187
:1034F000AFCF8B3019F40E949818B7CF8BE0A8CFCC
:10350000863069F48091950591E08927809395052F
:103510008111B5CF80918D0580939605A6CF86E069
:1035200097CF10921C0582CF863008F464CF0E949A
:10353000D11761CF811199CF80911C05811106C0EF
:1035400087E180931C050E94C7158FCF8150F9CF6A
:1035500081110BC080911B058F5F8C3318F4809311
:103560001B0564CF10921B0561CF863008F443CF52
:103570000E94981840CF811178CF80911B0581114E
:1035800004C08BE380931B05DECF8150FBCFF80195
:10359000828180939B0581E080938C0566CF82E0D9
:1035A00070CF8830E1F38B3009F469CF109251026B
:1035B00022CF2F923F924F925F926F927F928F9283
:1035C0009F92AF92BF92CF92DF92EF92FF920F93B2
:1035D0001F93CF93DF93CDB7DEB765970FB6F894FF
:1035E000DEBF0FBECDBF2C014B01B42EC22E8C010D
:1035F000075B1F4F18019C01265B3F4F390133E1E8
:10360000C312CAC1D801DC90DD2009F46CC50E9448
:103610008B0D82010B5B1F4F1B870A87D8012D91F1
:103620003D914D915C917B018C01E21AF30A040BF0
:10363000150B8091A2052BE030E0281B3109E4E650
:10364000E29FC001E39F900D1124092E000CAA0BEC
:10365000BB0B8E159F05A007B10760F40E948B0D70
:10366000AA85BB856D937D938D939C93139702E000
:103670000E8702C01E86D12CD1018C918111ABC165
:10368000F301208131812115310509F4A5C12150B3
:10369000310931832083F201E25BFF4FB11017C083
:1036A0009081911114C0D201A45BBF4F9C919111E4
:1036B0000EC0D1100CC0D3012D913C91232B29F0C9
:1036C00090919B05913009F011C581110FC51082B1
:1036D00080916104882309F483C191E0F101908312
:1036E000F201E45BFF4F1082B11083C1D1014C9114
:1036F0004111FFC1F201E45BFF4F1082F3018081B1
:103700009181892B09F406C2E0909B05EA86F201BB
:10371000E35BFF4F10810E2D013009F00DC4D10184
:103720008C91811109C4F301A080B180E12EF12CAC
:103730009701D5010E94AB353B014C0129E130E0F6
:1037400040E050E00E945735022F9701A9E1B0E018
:103750000E94AB35A4019301261B370B480B590B74
:10376000CA01B90127EE3FEF4FEF5FEF0E945735D7
:10377000F22EAB2819F4EA84D101EC9222E12C1547
:1037800008F4DDC3D12CB601660F771FC60ED71E15
:10379000A60147595F4F4A01FA016491812F0E94A7
:1037A0005101782E960126593F4F5901F901649134
:1037B000812F0E945101682E960128593F4F6901BF
:1037C000F9016491812F0E945101262D20688068A3
:1037D00090E0B0E0A0E0BA2FA92F982F8827A22B65
:1037E000272D2068AC01BD01422B4E835F83688783
:1037F0007987F40164918F2D0E945101782EF50193
:1038000064918F2D0E945101682EF60164918F2DD5
:103810000E945101262D2068806890E0B0E0A0E071
:10382000BA2FA92F982F8827A22B272D2068AC010B
:10383000BD01422B4E875F87688B798BF4016491C1
:10384000802F0E945101F82EF5016491802F0E9473
:103850005101B82EF6016491802F0E9451019B2DD9
:1038600090688068882E912CB12CA12CBA2CA92CA0
:10387000982C8824A92A8F2D8068882A0A850230EE
:1038800009F091C3D1018C9181118DC3012F10E0FA
:103890009801AFE7B0E00E94AB3544E6C42ED12CCE
:1038A000E12CF12CA70196010E94573533274427BC
:1038B0005527CA01B9016068706880686A877B878C
:1038C0008C879D879801AFE3B0E00E94AB35A701DC
:1038D00096010E945735DA01C90180689068A06896
:1038E0008A8B9B8BAC8BBD8B9801ACE0B0E00E94C7
:1038F000AB35A70196010E94573549015A016894DA
:1039000087F897F8A7F8C2010E94AB11F201E15BBA
:10391000FF4F11821082720104E622242394312C7D
:103920006F01102F25E0622E712CC101062C02C000
:10393000880F991F0A94E2F720919B05213099F492
:10394000D70112962D913C911397282339232817DC
:10395000390749F458964D915C91422353234217FD
:10396000530709F429C3F70126A537A528233923CE
:103970002817390709F061C32A853B854C855D8589
:10398000612FC2010E942612D6018D919C91119740
:1039900001968D939C9318C314E1C1126BCE809154
:1039A0001B0565E00E94E935911164CE80915202B9
:1039B000811160CE442309F45DCE0E948B0DF2018B
:1039C000EB5BFF4F608371838283938308EC0E87E8
:1039D000DD24D39451CE81E0D3011D921C925BCEA5
:1039E000B11007C0F201E45BFF4F9081992309F405
:1039F0007DCE90915202992339F0F201E45BFF4FA2
:103A00009081992309F472CE811170CED1018C91ED
:103A1000882309F46BCE80919B05813071F108F405
:103A200051C0843008F062CE80911B0565E00E9491
:103A3000E935992339F0F201E45BFF4F8081882357
:103A400009F454CE1092F1011092EE011092ED01A2
:103A50008CE08093EF011092F0011092EC01F201E2
:103A60003296C20148961192119213A612A6E81737
:103A7000F907C9F7F101108239CEF201E45BFF4F7B
:103A80004081EA54F109D401C40146962689378958
:103A900021933193442381F0158A148A13A612A628
:103AA00012968A179B0791F7F101108289E190E045
:103AB000D3018D939C931ACE2D913C911197358B08
:103AC000248BECCFF201E45BFF4F8081882309F463
:103AD0000DCEF497C2018E96119211928E179F0708
:103AE000D9F7D1011C9288EE93E0F3019183808392
:103AF000FDCDF2013296D401C40146961192119285
:103B00002D913D91358B248B13A612A6A817B907CA
:103B1000A9F7F0CD4111F8CD80919B05823049F095
:103B2000833009F461C18111EFCD81E0D1018C9323
:103B3000EBCDF201E15BFF4FA081B18126EC3DEFBF
:103B40004FEF5FEF0E9476352EE630E040E050E028
:103B50000E9457352A543C4F4F4F5F4FD3012D934E
:103B60003C937201BEE2EB0EF11C0E94EE3325E0A5
:103B700030E040E050E00E945735162F8091F00170
:103B8000F201EE5BFF4FD20156968111A9C09291CE
:103B90008291938382832D913C9111979E918E9176
:103BA000822B932B13969C938E931297EE15FF0501
:103BB00071F7F20180A991A924813581822B932B81
:103BC0009383828317A616A60E94EE3323E030E08B
:103BD00040E050E00E9457351616170618061906E1
:103BE00024F58091EF01815000E0AA24A394B12C28
:103BF000823008F044C08091ED019091EE019C016B
:103C000020953095D2019E964D915C919F97242BE3
:103C1000352B9F963C932E939E97822B932B9093BC
:103C2000EE018093ED011092EF018091EF0181117F
:103C300021C08091F1018F5F8093F1018C30D0F031
:103C40008091F0018111CCC0D401F20178968D9160
:103C50009D9181939193EE16FF06C9F71092EE01A4
:103C60001092ED018CE08093EF011092F10181E060
:103C70008093F0018091EC01F101808345CD011723
:103C8000A0F60E94EE332CE030E040E050E00E94CD
:103C900057356C5F7F4F8F4F9F4F950102C0220FAA
:103CA000331F6A95E2F78091ED019091EE01A90131
:103CB00048235923452B59F4822B932B9093EE01E3
:103CC0008093ED018091EF0181508093EF01F2012B
:103CD00086A597A5822B932B97A786A70F5FCFCF9B
:103CE00092918291938382839E918E9113969C935D
:103CF0008E931297EE15FF0599F7D201D0968D910C
:103D00009C91D1978095909514962D913C91159703
:103D10008223932313969C938E9312979F961C92C3
:103D20001E929E970E94EE3323E030E040E050E088
:103D30000E94573516161706180619060CF075CF8F
:103D40008091EF01882309F474CF833078F4809157
:103D5000ED019091EE019C0120953095F20146A570
:103D600057A5242B352B37A726A757CF00E0AA2429
:103D7000A394B12C011708F058CF0E94EE332CE029
:103D800030E040E050E00E9457356C5F7F4F8F4F2E
:103D90009F4F950102C0220F331F6A95E2F7809171
:103DA000ED019091EE01A90148235923452BB1F46F
:103DB000822B932B9093EE018093ED018091EF0184
:103DC00081508093EF01D2019E968D919C919F9797
:103DD000822B932B9F969C938E939E970F5FCACFB7
:103DE00081E08093EC0146CF8EE591E09183808362
:103DF000F2017896FB87EA878091F101F1E0F80FF4
:103E0000FE83F093F101F631E8F530E020E00FE0B9
:103E100010E0AA24A394B12C8E818D3008F08CE0A0
:103E2000281708F082C0C801821B930BD50102C07D
:103E3000AA0FBB1F8A95E2F7F201BC96BD016095FF
:103E4000709540815181462357235183408392913D
:103E500082918A239B23842B952B93838283EA84EC
:103E6000FB84EE15FF0569F7D20158968D919C9160
:103E700059976823792359967C936E9358972F5FAF
:103E80003F4FCACF9E819F3108F49FE141EE490F19
:103E9000BE816CE0A62EB12CB13220F4EB2FE5519F
:103EA000FF0B5F01891B242F30E02A153B05ECF541
:103EB0005FE0E52EF12CE21AF30A01E010E002C007
:103EC000000F111FEA94E2F7EA85FB8591E0980F55
:103ED0005BE0580F7801E094F094608171816E216D
:103EE0007F21718360839C3070F4A92FB0E0AA0F0A
:103EF000BB1FA80DB91D2D913C9120233123262BEA
:103F0000372B3183208332969F5F5913E6CFD4013C
:103F100054962D913C9155972E213F2155963C93D7
:103F20002E9354974F5F8150BECF81E0BE81BA324D
:103F300008F0A2CE80E0A0CEF12E00E01FCC6DEE06
:103F40006C0D623020F5F201EC5BFF4FDD2021F0BB
:103F500080817E84780E7082D0804D2D612FC201C9
:103F60000E94C6116E837F83888799874D2D6F2DA0
:103F7000C2010E94C6116E877F87888B998B4D2D59
:103F8000602FC2010E94C6114B015C0177CC812CCD
:103F9000912C54011E861F86188A198A1E821F8240
:103FA000188619866BCC1A8A1B8A1C8A1D8A1A8667
:103FB0001B861C861D86A7CC2E813F81488559858E
:103FC000612FC2010E942612BFEF6B1A7B0A1A50A2
:103FD000E0E16E16710409F0A8CCF2E0EF0EF11CDE
:103FE0000F5F0E3609F09DCC85E0EFE0F1E0DE01D9
:103FF000119601900D928A95E1F78E010F5F1F4F88
:104000009EE6F92ED801ED918D01F0E0EE0FFF1F35
:10401000E40DF51D2281338180919B05813041F4AF
:10402000808D918D822393238F719927892B41F560
:1040300024FF51C0A501940127C020A931A928233C
:1040400039232817390729F42A893B894C895D8946
:1040500097CC22813381282339232817390719F473
:10406000A50194018DCC208D318D2823392328176B
:10407000390709F0A9CF2E853F854889598980CC19
:104080002E813F81488559856F2DC2010E942612DD
:10409000F394B3E7FB12B6CFF201EF5AFF4F8081E2
:1040A000918165960FB6F894DEBF0FBECDBFDF914C
:1040B000CF911F910F91FF90EF90DF90CF90BF9025
:1040C000AF909F908F907F906F905F904F903F90B8
:1040D0002F900C940F0E808D84FFDACF2E853F85B4
:1040E00048895989D1CF80E01E86CACA65960FB625
:1040F000F894DEBF0FBECDBFDF91CF911F910F911E
:10410000FF90EF90DF90CF90BF90AF909F908F90F7
:104110007F906F905F904F903F902F9008951F92E7
:104120000F920FB60F9211242F933F934F935F93EB
:104130006F937F938F939F93AF93BF93EF93FF936F
:1041400089EE92E00E94C00BFF91EF91BF91AF9179
:104150009F918F917F916F915F914F913F912F919F
:104160000F900FBE0F901F9018951F920F920FB6D1
:104170000F9211242F938F939F93EF93FF93E091CE
:10418000F902F091FA028081E091FF02F0910003C0
:1041900082FD1BC09081809102038F5F8F732091FD
:1041A0000303821741F0E0910203F0E0E751FD4F75
:1041B000958F80930203FF91EF919F918F912F91A3
:1041C0000F900FBE0F901F9018958081F4CF1F9213
:1041D0000F920FB60F9211242F933F938F939F93BB
:1041E000AF93BF938091370290913802A09139022A
:1041F000B0913A023091360223E0230F2D3758F563
:104200000196A11DB11D2093360280933702909331
:104210003802A0933902B0933A0280913B02909108
:104220003C02A0913D02B0913E020196A11DB11D3C
:1042300080933B0290933C02A0933D02B0933E02D8
:10424000BF91AF919F918F913F912F910F900FBE92
:104250000F901F90189526E8230F0296A11DB11DFF
:10426000D2CF1F920F920FB60F9211242F933F932C
:104270004F935F936F937F938F939F93AF93BF936E
:10428000EF93FF93E0910201F09103010995FF91F3
:10429000EF91BF91AF919F918F917F916F915F91BE
:1042A0004F913F912F910F900FBE0F901F90189537
:1042B0001F920F920FB60F9211242F933F934F939B
:1042C0005F936F937F938F939F93AF93BF93EF937E
:1042D000FF93E0910001F09101010995FF91EF91A9
:1042E000BF91AF919F918F917F916F915F914F910E
:1042F0003F912F910F900FBE0F901F9018951F9216
:104300000F920FB60F9211242F933F934F935F9309
:104310006F937F938F939F93AF93BF93EF93FF938D
:104320008091B900887F803609F44AC0F0F5883260
:1043300009F4A7C018F5803109F49BC0B8F48823AC
:1043400009F4F9C0883009F494C0FF91EF91BF914E
:10435000AF919F918F917F916F915F914F913F911D
:104360002F910F900FBE0F901F901895883109F470
:1043700088C0803251F78093BD0214C0803409F4A4
:104380009DC040F48033B9F38833F9F68093BD02C1
:1043900085ECB0C0803509F485C0883509F496C035
:1043A000883499F60E949416D0CF883909F48CC0CD
:1043B00038F5883729F050F4883611F0803729F61F
:1043C00083E08093BF021092350257C0883809F409
:1043D0007BC0803919F0803809F0B7CF8091350261
:1043E000803208F071C0E091350281E08E0F809339
:1043F00035028091BB00F0E0EB5EFD4F80833DC055
:10440000803B39F0E0F4803A09F479C0883A09F049
:104410009CCF84E08093BF0210921402109213028A
:10442000E0914102F09142020995809113028111BD
:104430000FC081E0809313021092F30109C0803C09
:1044400009F4A6CF883C09F4A3CF883B09F07DCFBF
:10445000E091140281E08E0F80931402F0E0ED50A1
:10446000FE4F80818093BB009091140280911302D3
:1044700029C080919A028093BB0085EC8093BC0098
:1044800064CF9091BC028091BB02981758F5E091DF
:10449000BC0281E08E0F8093BC02F0E0E556FD4F38
:1044A0008081E9CFE091BC0281E08E0F8093BC0255
:1044B0008091BB00F0E0E556FD4F80839091BC02F7
:1044C0008091BB029817C8F285E8D8CFE091BC0272
:1044D00081E08E0F8093BC028091BB00F0E0E55636
:1044E000FD4F80838091BE0281115CCF81E080937B
:1044F000990284EA8093BC001092BF0226CF85EC1B
:104500008093BC001092BF0280913502803230F45B
:10451000E0913502F0E0EB5EFD4F108260913502D4
:1045200070E0E0913F02F091400285E192E0099550
:10453000109235020ACF1092BD0234CF1F920F9213
:104540000FB60F9211242F933F934F935F936F9366
:104550007F938F939F93AF93BF93EF93FF9380913C
:1045600092030E94780C20919503309196032F5F5F
:104570003F4F309396032093950390915F049436B8
:1045800018F095E09093930390919303933009F47E
:104590004AC0D0F4923001F190919403992319F01C
:1045A000811169C02D9AFF91EF91BF91AF919F91B9
:1045B0008F917F916F915F914F913F912F910F90CC
:1045C0000FBE0F901F901895943009F448C0953095
:1045D00019F78111E1CF09C08111DECF2091950338
:1045E000309196032436310528F4109296031092E8
:1045F0009503D2CF10925F04E0915F0491E09E0F8B
:1046000090935F04F0E02091950330919603EE0FB4
:10461000FF1FEE56FC4F36832583109296031092AF
:10462000950393E019C0813009F0B6CFE0915F04A3
:1046300091E09E0F90935F04F0E0209195033091FC
:104640009603EE0FFF1FEE56FC4F36832583109224
:1046500096031092950394E0909393039DCF882343
:1046600059F220919503309196032536310508F4CF
:1046700093CF95E0F1CF2D9896CFCF93DF93EC01B8
:1046800061E089850E94E30C61E088850E94E30C6B
:10469000EE85FF8590818B85809589238083888135
:1046A0009981880F991F4F9635E0969587953A9591
:1046B000E1F743E0880F991F4A95E1F7009779F0F9
:1046C000EC85FD8520813A85232B2083EC85FD85B3
:1046D00030812A852095232320830197EFCFDF9116
:1046E000CF910895FF920F931F93CF93DF93109272
:1046F000EC021092EB0288EE93E0A0E0B0E0809331
:10470000ED029093EE02A093EF02B093F0022BE241
:1047100031E03093EA022093E90225EC30E0309357
:10472000F6022093F50224EC30E03093F802209357
:10473000F70220EC30E03093FA022093F90221ECEA
:1047400030E03093FC022093FB0222EC30E0309307
:10475000FE022093FD0226EC30E03093000320930C
:10476000FF021092020310920303109204031092AE
:104770000503109289031092880380938A03909313
:104780008B03A0938C03B0938D038DE391E0909302
:1047900087038093860387E190E00E947D328C013D
:1047A000DC011C9283E011968C93119712961C9257
:1047B000129713961C92139714961C9214971596A1
:1047C0001C9210939E0500939D0587E190E00E9446
:1047D0007D32EC018EE1888384E089831A821B821A
:1047E0001C821D82D093A005C0939F051092930553
:1047F00010929C0581E080939405809395058BE44D
:10480000809396051092970510929B05109298053B
:104810001092990510929A051092A20585E0809356
:10482000A10590E080E00E94CE168A3C09F078C095
:1048300081E090E00E94CE16873009F071C082E0DE
:1048400090E00E94CE168B3010F48093930583E0A5
:1048500090E00E94CE1691E0811101C090E090930B
:10486000940584E090E00E94CE1691E0811101C091
:1048700090E09093950585E090E00E94CE1680939D
:10488000960586E090E00E94CE1691E0811101C06D
:1048900090E09093970587E090E00E94CE1691E01B
:1048A000811101C090E09093980588E090E00E940B
:1048B000CE168093990589E090E00E94CE168093F1
:1048C0009B058AE090E00E94CE1680939A058BE0CB
:1048D00090E00E94CE1680939C058DE090E00E94AF
:1048E000CE16F82E8CE090E00E94CE16F801808360
:1048F000F1828FE090E00E94CE16182F8EE090E0BB
:104900000E94CE168883198380E190E00E94CE1623
:104910008093A10581E190E00E94CE168093A205CC
:104920008FE491E0909341058093400582E190E00F
:104930000E947D32EC01198A1B821A821982188228
:1049400089E591E00E947D329F838E83009791F0EC
:1049500023E730E03983288329E531E03B832A834C
:1049600028E030E03D832C8349E551E060E870E0C9
:104970000E9423368DE089878BE08887E2E4F2E0AD
:10498000E491F0E0EE0FFF1FE35DFD4F8591949100
:104990009D878C87E4E2F2E0E491EA87E4E4F2E0C8
:1049A000E491F0E0EE0FFF1FE35DFD4F85919491E0
:1049B0009F878E87E6E2F2E0E491EB87188AD09336
:1049C0009205C0939105CE010E943D2381E0898B21
:1049D0001092840510928B0510928A0580938905A8
:1049E0000E948B0D609385057093860580938705E3
:1049F0009093880510928E0510928C051092900568
:104A000010928F058AE0809392031092940385E6BA
:104A100091E090933C0580933B05909337058093FC
:104A2000360510921B0510921C0510921D05109260
:104A30001E0510921F051092200588E690E09093C5
:104A400033058093320584E08093340561E00E9451
:104A5000E30C60E0809134050E94B50C109298043C
:104A60001092990410929A0410929B0410929C0444
:104A700010929D041092B2041092B1041092070596
:104A800010920605109209051092080510920A0569
:104A90008FEF9FEF90930C0580930B0510921505F7
:104AA000109216051092170510921805109219050C
:104AB00010921A0589E08093AF0460E00E94E30C35
:104AC00088E08093B00461E00E94E30C60E0809194
:104AD000B0040E94B50CE4EBF4E08FEE94E0119288
:104AE0008E179F07E1F71092B304E0EFF4E086E041
:104AF00095E0119211928E179F07D9F78DE193E6F9
:104B0000A1E0B0E08093110590931205A0931305E6
:104B1000B09314050E94340D60930D0570930E053B
:104B200080930F059093100510928B040CE814E00D
:104B3000C0E0D4E687E190E00E947D32FC01C083B2
:104B4000C183C283C383C483C583D8018D939D93DE
:104B50008D0187E190E00E947D32FC01D0831182BB
:104B60001282138214821582D80115969C938E931B
:104B70001497CF5FC330F1F681E180938204C1E0E6
:104B8000C093830481E090E0909385048093840433
:104B9000109286048FEF93E09093880480938704AB
:104BA00010928A041092890415E010937A041092EE
:104BB0007E0410927F04109280041092810410925F
:104BC0007C04C0937D0460E085E00E94E30CD6E0A5
:104BD000D0937204109276041092770410927804A5
:104BE0001092790410927404C093750460E086E01A
:104BF0000E94E30C10936A04D0936B0410926E042D
:104C000010926F041092700410927104C0936C049F
:104C1000C0936D0460E085E00E94E30C60E0809149
:104C20006B040E94E30C87E0809362041092660498
:104C30001092670410926804109269041092640440
:104C4000C093650460E00E94E30C8091610480934E
:104C50006004DF91CF911F910F91FF900895789498
:104C600084B5826084BD84B5816084BD85B5826071
:104C700085BD85B5816085BD80916E008160809322
:104C80006E0010928100809181008260809381008B
:104C9000809181008160809381008091800081609B
:104CA000809380008091B10084608093B1008091F6
:104CB000B00081608093B00080917A00846080931E
:104CC0007A0080917A00826080937A0080917A00E5
:104CD000816080937A0080917A00806880937A0066
:104CE0001092C100E091F902F091FA0282E0808313
:104CF000E091F902F091FA021082E091F502F09150
:104D0000F6021082E091F702F091F80280E18083D0
:104D100010920103E091FD02F091FE0286E0808393
:104D2000E091FB02F091FC02808180618083E09140
:104D3000FB02F091FC02808188608083E091FB029D
:104D4000F091FC02808180688083E091FB02F09109
:104D5000FC0280818F7D808382E390E0A0E0B0E060
:104D60008093ED029093EE02A093EF02B093F002D5
:104D700061E08FEF0E94E30C61E08FEF0E94B50CC1
:104D800080E495E00E94D01280E495E00E947A12BF
:104D90000E94600110927802109277021092C6026F
:104DA0001092E8020E948A0E8FE39BE090934202E9
:104DB0008093410280E49BE09093400280933F0205
:104DC00060E082E00E94E30C61E082E00E94B50CAA
:104DD000C3E061E08091B0040E94B50C64E670E02D
:104DE00080E090E00E94590D60E08091B0040E9444
:104DF000B50C64E670E080E090E00E94590DC1506F
:104E000041F70E944414809135058C3360F4809101
:104E10001B058C3340F480911C05883120F480916F
:104E200020058F3088F48BE080931B0580931C0550
:104E300091E090931D0590931E0590931F059FE0B0
:104E400090932005809335058091320591E09093F1
:104E5000C5028093E7021092C6021092E80267E052
:104E600086E893E00E940F1060E186E893E00E94DC
:104E70000F1081E00E94C90E0E943E1080913505FE
:104E8000809352028EE891E190930101809300019A
:104E9000809169008C7F826080936900E89AC8EEF7
:104EA000D3E081E10E941F0D2197D9F7C3E061E0B3
:104EB000809134050E94B50C64E670E080E090E0DB
:104EC0000E94590D60E0809134050E94B50C64E6A3
:104ED00070E080E090E00E94590DC15041F7CFEBA7
:104EE000D0E0FE01649161112EC144E350E069E617
:104EF00071E089EE92E00E94420B42E050E06EE9E0
:104F000071E089EE92E00E94420BF89482E0809377
:104F1000B0008093B10094E69093B3001092B20079
:104F20008093700078948093930310925F04809133
:104F3000920360E00E94E30C60E08FEF0E94B50CEA
:104F40006091960580E495E00E94BD120E948B0D51
:104F50006B017C01C7E7D2E00FEF1FEF0E948B0DC2
:104F60006C197D098E099F09683873418105910587
:104F700008F4F2C022242394312C88248394912CA9
:104F8000CAE0D0E080919505882309F4ABC00E9467
:104F90008B0D0091530210915402209155023091D3
:104FA0005602601771078207930750F40E948B0D19
:104FB000609353027093540280935502909356026B
:104FC000C0905302D0905402E0905502F0905602E7
:104FD0001AE0C10ED11CE11CF11C0E948B0DC616FB
:104FE000D706E806F90608F07DC08091820490910A
:104FF00083049111C1C00E941F0D9C018091840403
:10500000909185048217930709F456C02115310544
:1050100079F02F3F43E0340759F0AC014E5C5F4F0D
:10502000421753072CF0C297281739070CF044C0D9
:1050300030938504209384048091870490918804A0
:105040002817390724F4309388042093870480912B
:10505000890490918A048217930724F430938A0478
:1050600020938904C0908704D09088040D2C000CF4
:10507000EE08FF08032E000C440B550B2C193D09BC
:105080004E095F09A4E6B0E00E94763520918904BC
:1050900030918A04032E000C440B550B2C193D094A
:1050A0004E095F090E945735253608F024E6253061
:1050B00008F425E0209386048091860460918D0594
:1050C000861708F060C0615080E495E00E94BD1230
:1050D0000E948B0D6093530270935402809355028B
:1050E0009093560280910401882309F4D6C010924F
:1050F0000401809152028C3330F00E94441480915C
:10510000350580935202E0916104E63108F0BCC09D
:10511000F0E0E357F74D0C941D36C828ED29462AD8
:10512000432A4429432A2C2A792A9C2A222BF32B0E
:105130000A2DC828032C422CA62CDC28A42BCF2B0C
:10514000632B612D0B2E89EE92E00E94E20B2196DB
:10515000892B09F0C6CEC9CEE7E5F2E001931193A1
:10516000CE17DF07D9F720E041E067E572E080E481
:1051700095E00E94D91AF2CE0E941F0D2FEF33E066
:10518000281B390B3BCF681708F0A2CF6F5F9CCF6D
:105190000E9460019091990580911C0540919305B2
:1051A00060911B05890F0E946D05609194058091A7
:1051B0001B050E94C30168C00E94600120919905EF
:1051C000822F022E000C990B27FF1BC04091590221
:1051D00050915A02506E50935A024093590212163F
:1051E00074F5BE010E94093637E0389FA001399F4F
:1051F000500D112461E0121634F52A3034F560E0C8
:1052000024C02223E1F04091590250915A02506E7D
:1052100050935A02409359024091570250915802BC
:105220005064509358024093570240915B02509152
:105230005C02506450935C0240935B02D0CF919526
:1052400081959109CECF273FD4F6A7E5B2E090E053
:1052500080E045505F4FFA01E80FF91FE49170E2DA
:10526000E79FF001112416962D913C9117972E2B54
:105270003F2B6111A2C017963C932E93169701966F
:1052800012968730910539F720919A0541E067E53C
:1052900072E080E495E00E94D91A80916104853122
:1052A000E1F410911A05809198050E94A10C8823C1
:1052B00009F4B8C480911905811108C080911A05BC
:1052C00091E0909319058F5F80931A0580911A05DC
:1052D000811719F081E080930401809161048111AC
:1052E00007C08AE694E00E94EE1381110E949A1290
:1052F00080916104833009F09DC48AE694E00E94A5
:10530000EE13882309F496C481E0809304010E947F
:105310008B0D6B017C018AE794E00E94D3138823F4
:1053200009F483C482E794E00E94D313882309F42C
:105330007CC40E948B0D6C197D098E099F09693808
:1053400073418105910538F3109261041092600455
:105350001092930510929C0581E0809394058093B0
:1053600095058BE4809396051092970510929B0506
:10537000109298051092990510929A051092A20524
:10538000E0919D05F0919E05108283E08183128259
:10539000138214821582E0919F05F091A0058EE1A1
:1053A000808384E08183128213821482158285E0D7
:1053B0008093A1050E94D0163DC4FC01EE5FFE4F14
:1053C000E491F0E0FE2FEE27FF0FFF0FE22BF32B0F
:1053D0001796FC93EE93169752CF0E946001A7E5B3
:1053E000B2E030E020E05AE047E080915202652FC1
:1053F0000E94E935F901849FE00DF11D1124E5506B
:10540000FF4F1491809152020E94E935F901949F57
:10541000E00DF11D1124E550FF4FE491812F90E044
:10542000982F8827990F990F990F10E2E19FF001AB
:105430001124E82BF92B12968D919C9113978E2BAA
:105440009F2B13969C938E9312972F5F3F4F12962C
:105450002730310551F618CF0E94600180919505E3
:1054600015E0882341F062E085ED91E00E94D615B9
:105470001150C9F709CF62E089EC91E00E94D6157E
:105480001150C9F701CF0E946001FECE0E94600159
:105490002091960530E050E040E02150310941096B
:1054A0005109A9E0B0E00E94763523E630E040E003
:1054B00050E00E94573590E080E0A82F821708F056
:1054C000E3CE4EE050E0481B590BB10102C0660F1D
:1054D000771F4A95E2F7EBE6F2E030E05291429115
:1054E000462B572B518340833F5FA317B8F7019694
:1054F000E4CF0E94600160E081EA91E00E94D6154D
:1055000080919B05813071F048F0823089F08330C2
:1055100009F0BACE65E08DEA91E007C065E084EA63
:1055200091E003C065E087EA91E00E94D615ACCE19
:1055300065E08AEA91E0F9CF0E94600180919A05C6
:1055400060E0833108F03DC081EB91E00E94D61508
:1055500080919A056AE00E94E935392F25E0289F5D
:10556000C0011124239F90011124A7E5B2E050E06F
:1055700040E087539F4F27533F4FFC01E40FF51F37
:105580006491F901E40FF51FE49170E0762F66272E
:10559000770F770F10E2E19FF0011124E62BF72B34
:1055A0001A966D917C911B97E62BF72B1B96FC931B
:1055B000EE931A974F5F5F4F129645305105E9F60B
:1055C00063CE80EB91E00E94D61580919A058251BE
:1055D000990BBE010E940936E5E0E69FA001E79F16
:1055E000500D1124E89F9001E99F300D1124A7E58B
:1055F000B2E090E080E047535F4F27533F4FFA01FE
:10560000E80FF91F6491F901E80FF91FE49170E0C8
:10561000762F6627770F770F10E2E19FF0011124B4
:10562000E62BF72B1A966D917C911B97E62BF72BA7
:105630001B96FC93EE931A9701961296853091056E
:10564000F1F622CE0E94600160E083EB91E00E94BF
:10565000D6158091A2056AE00E94E935492F25E020
:10566000829FC0011124429FA0011124A7E5B2E04E
:1056700030E020E087539F4F47535F4FFC01E20F1C
:10568000F31F6491FA01E20FF31FE49170E0762FAB
:105690006627770F770F770F10E2E19FF001112453
:1056A000E62BF72B1A966D917C911B97E62BF72B27
:1056B0001B96FC93EE931A972F5F3F4F129627305D
:1056C0003105E1F6E1CD0E94600160E086EB91E0FA
:1056D0000E94D6158091A1056AE00E94E935492F04
:1056E00025E0829FC0011124429FA0011124A7E55B
:1056F000B2E030E020E087539F4F47535F4FFC01FB
:10570000E20FF31F6491FA01E20FF31FE49170E0DE
:10571000762F6627770F770F770F10E2E19FF00162
:105720001124E62BF72B1A966D917C911B97E62B93
:10573000F72B1B96FC93EE931A972F5F3F4F129611
:1057400027303105E1F6A0CD0E9460018091510221
:10575000811109C060E084EA91E00E94D61565E0FD
:1057600089EB91E0E2CE0E946001E0919D05F0910D
:105770009E0540919305608181810E946D05809115
:1057800093050E94E201E0919D05F0919E058181C3
:105790008C3008F479CD6091940581E00ACD0E94A7
:1057A000600180915102811109C060E08EED91E0AD
:1057B0000E94D61565E08CEB91E0B7CE0E946001A7
:1057C000E0919F05F091A005409193056081818152
:1057D0000E946D05809193050E94E201E0919F0572
:1057E000F091A005D4CF0E94600160E08FEB91E0C2
:1057F0000E94D6158091980565E0882309F48FCE24
:1058000082EC91E092CE0E94600160E085EC91E034
:105810000E94D615809120056AE00E94E93525E0B6
:10582000929FA0011124829FC0011124A7E5B2E03C
:1058300030E020E047535F4F87539F4FFA01E20F5C
:10584000F31F6491FC01E20FF31FE491F0E26F9FFC
:10585000B0011124F0E0FE2FEE27FF0FFF0FE62B23
:10586000F72B1A966D917C911B97E62BF72B1B96C5
:10587000FC93EE931A972F5F3F4F12962530310518
:10588000E9F602CD0E94600160E088EC91E00E94A0
:10589000D61580911F058A30B0F16AE00E94E93583
:1058A00025E0929FA0011124829FC0011124A7E549
:1058B000B2E030E020E047535F4F87539F4FFA013B
:1058C000E20FF31F6491FC01E20FF31FE49110E279
:1058D000619FB0011124F0E0FE2FEE27FF0FFF0FB4
:1058E000E62BF72B1A966D917C911B97E62BF72BE5
:1058F0001B96FC93EE931A972F5F3F4F129625301D
:105900003105E9F6C1CC25E0829FC0011124A7E54D
:10591000B2E030E020E087539F4FFC01E20FF31F1D
:10592000E49140E8E49FF00111241A964D915C91B6
:105930001B97E42BF52B1B96FC93EE931A972F5F86
:105940003F4F12962530310541F79ECC0E946001F1
:1059500060E08BEC91E00E94D61580911D058A30A5
:10596000B0F16AE00E94E93525E0929FA001112480
:10597000829FC0011124A7E5B2E030E020E0475348
:105980005F4F87539F4FFA01E20FF31F6491FC01B1
:10599000E20FF31FE491F0E26F9FB0011124F0E0F9
:1059A000FE2FEE27FF0FFF0FE62BF72B1A966D91B8
:1059B0007C911B97E62BF72B1B96FC93EE931A9783
:1059C0002F5F3F4F129625303105E9F65DCC15E08B
:1059D000819FC0011124A7E5B2E030E020E08753A9
:1059E0009F4FFC01E20FF31FE49140E8E49FF001B8
:1059F00011241A964D915C911B97E42BF52B1B9665
:105A0000FC93EE931A972F5F3F4F12962530310586
:105A100041F73ACC0E946001E0919305EB3008F029
:105A200033CCF0E0EA5EF24D0C941D36402D442D4F
:105A3000212D252D2E2D372D4D2D512D552D592D07
:105A40005D2D62E08EEC91E070CD60E08EEC91E037
:105A50000E94D61565E081ED91E067CD60E08EECA7
:105A600091E00E94D61565E084ED91E05ECD60E0A6
:105A70008EEC91E00E94D61565E087ED91E055CD62
:105A800062E08AED91E051CD60E08AED91E00E9404
:105A9000D61565E08BEA91E048CD62E08DED91E0AE
:105AA00044CD62E080EE91E040CD62E083EE91E093
:105AB0003CCD62E086EE91E038CD62E089EE91E087
:105AC00034CD0E9460010E948B0D0091150510914C
:105AD00016052091170530911805601B710B820B7C
